:020000040800F2
:100000000000052045100008511900085319000888
:100010005519000857190008591900080000000078
:100020000000000000000000000000009510000823
:100030005B19000800000000951000085D19000819
:1000400095100008951000089510000895100008FC
:1000500095100008951000089510000895100008EC
:1000600095100008951000089510000895100008DC
:1000700095100008951000089510000895100008CC
:1000800095100008951000089510000895100008BC
:1000900095100008951000089510000895100008AC
:1000A000951000089510000895100008951000089C
:1000B000951000089510000895100008951000088C
:1000C000951000089510000895100008951000087C
:1000D000951000089510000895100008951000086C
:1000E000951000089510000895100008951000085C
:1000F000951000089510000895100008951000084C
:10010000951000089510000895100008951000083B
:10011000951000089510000895100008951000082B
:10012000951000089510000895100008951000081B
:10013000951000089510000895100008951000080B
:1001400095100008951000089510000895100008FB
:1001500095100008951000089510000895100008EB
:1001600095100008951000089510000895100008DB
:100170009510000895100008951000080000000078
:1001800095100008951000089510000895100008BB
:1001900095100008951000089510000895100008AB
:1001A000951000089510000895100008951000089B
:1001B000951000089510000895100008951000088B
:0801C0009510000895100008DD
:1001D00010B5054C237833B9044B13B10448AFF381
:1001E00000800123237010BD780200200000000071
:1001F000DCFE000808B5034B1BB103490348AFF30D
:10020000008008BD000000007C020020DCFE000829
:1002100010F8012B11F8013B012A28BF9A42F7D0B0
:10022000D01A70470000000000000000000000002D
:1002300001F0FF01102A2BDB10F0070F08D010F897
:10024000013B013A8B422DD010F0070F42B3F6D19B
:10025000F0B441EA012141EA014122F007047FF0B4
:1002600000070023F0E80256083C85EA010586EA0B
:10027000010685FA47F5A3FA87F586FA47F6A5FA47
:1002800087F68EB9EED1F0BC01F0FF0102F0070253
:1002900032B110F8013B013A83EA010313B1F8D1FE
:1002A0000020704701387047002D06BF35460338DF
:1002B000073815F0010F07D1013015F4807F02BF18
:1002C000013015F4C03F0130F0BC0138704700BF69
:1002D00081F0004102E000BF83F0004330B54FEAF7
:1002E00041044FEA430594EA050F08BF90EA020F64
:1002F0001FBF54EA000C55EA020C7FEA645C7FEAF7
:10030000655C00F0E2804FEA5454D4EB5555B8BF19
:100310006D420CDD2C4480EA020281EA030382EA8A
:10032000000083EA010180EA020281EA0303362D1C
:1003300088BF30BD11F0004F4FEA01314FF4801CEF
:100340004CEA113102D0404261EB410113F0004F01
:100350004FEA03334CEA133302D0524263EB4303B8
:1003600094EA050F00F0A780A4F10104D5F1200E56
:100370000DDB02FA0EFC22FA05F2801841F10001B1
:1003800003FA0EF2801843FA05F359410EE0A5F185
:1003900020050EF1200E012A03FA0EFC28BF4CF0B6
:1003A000020C43FA05F3C01851EBE37101F000456C
:1003B00007D54FF0000EDCF1000C7EEB00006EEB79
:1003C0000101B1F5801F1BD3B1F5001F0CD3490803
:1003D0005FEA30004FEA3C0C04F101044FEA44525A
:1003E00012F5800F80F09A80BCF1004F08BF5FEAE1
:1003F000500C50F1000041EB045141EA050130BDC1
:100400005FEA4C0C404141EB0101013C28BFB1F5D2
:10041000801FE9D291F0000F04BF01460020B1FA1D
:1004200081F308BF2033A3F10B03B3F120020CDAF0
:100430000C3208DD02F1140CC2F10C0201FA0CF0CE
:1004400021FA02F10CE002F11402D8BFC2F1200C33
:1004500001FA02F120FA0CFCDCBF41EA0C019040E9
:10046000E41AA2BF01EB0451294330BD6FEA040432
:100470001F3C1CDA0C340EDC04F11404C4F120021D
:1004800020FA04F001FA02F340EA030021FA04F32F
:1004900045EA030130BDC4F10C04C4F1200220FA86
:1004A00002F001FA04F340EA0300294630BD21FAC4
:1004B00004F0294630BD94F0000F83F4801306BF8A
:1004C00081F480110134013D4EE77FEA645C18BF7E
:1004D0007FEA655C29D094EA050F08BF90EA020F15
:1004E00005D054EA000C04BF1946104630BD91EA0D
:1004F000030F1EBF0021002030BD5FEA545C05D110
:100500004000494128BF41F0004130BD14F580044E
:100510003CBF01F5801130BD01F0004545F0FE41C2
:1005200041F470014FF0000030BD7FEA645C1ABFF7
:10053000194610467FEA655C1CBF0B46024650EA2E
:10054000013406BF52EA033591EA030F41F400215A
:1005500030BD00BF90F0000F04BF0021704730B5E0
:100560004FF4806404F132044FF000054FF00001B5
:1005700050E700BF90F0000F04BF0021704730B576
:100580004FF4806404F1320410F0004548BF40424B
:100590004FF000013EE700BF42004FEAE2014FEAA0
:1005A00031014FEA02701FBF12F07F4393F07F4F7B
:1005B00081F06051704732F07F4208BF704793F07E
:1005C0007F4F04BF41F40021704730B54FF4607491
:1005D00001F0004521F000411CE700BF50EA010294
:1005E00008BF704730B54FF000050AE050EA01023D
:1005F00008BF704730B511F0004502D5404261EBAD
:1006000041014FF4806404F132045FEA915C3FF4ED
:10061000D8AE4FF003025FEADC0C18BF03325FEA8A
:10062000DC0C18BF033202EBDC02C2F1200300FA3B
:1006300003FC20FA02F001FA03FE40EA0E0021FA60
:1006400002F11444BDE600BF70B54FF0FF0C4CF44E
:10065000E06C1CEA11541DBF1CEA135594EA0C0F00
:1006600095EA0C0F00F0DEF82C4481EA030621EA3B
:100670004C5123EA4C5350EA013518BF52EA033576
:1006800041F4801143F4801338D0A0FB02CE4FF028
:100690000005E1FB02E506F00042E0FB03E54FF058
:1006A0000006E1FB03569CF0000F18BF4EF0010E50
:1006B000A4F1FF04B6F5007F64F5407404D25FEA4C
:1006C0004E0E6D4146EB060642EAC62141EA5551FF
:1006D0004FEAC52040EA5E504FEACE2EB4F1FD0C41
:1006E00088BFBCF5E06F1ED8BEF1004F08BF5FEABF
:1006F000500E50F1000041EB045170BD06F0004671
:1007000046EA010140EA020081EA0301B4EB5C041D
:10071000C2BFD4EB0C0541EA045170BD41F4801115
:100720004FF0000E013C00F3AB8014F1360FDEBF3A
:10073000002001F0004170BDC4F10004203C35DA16
:100740000C341BDC04F11404C4F1200500FA05F399
:1007500020FA04F001FA05F240EA020001F000423A
:1007600021F0004110EBD37021FA04F642EB0601B0
:100770005EEA430E08BF20EAD37070BDC4F10C04DA
:10078000C4F1200500FA04F320FA05F001FA04F29E
:1007900040EA020001F0004110EBD37041F100018A
:1007A0005EEA430E08BF20EAD37070BDC4F1200595
:1007B00000FA05F24EEA020E20FA04F301FA05F2FD
:1007C00043EA020321FA04F001F0004121FA04F2A5
:1007D00020EA020000EBD3705EEA430E08BF20EA75
:1007E000D37070BD94F0000F0FD101F000464000AF
:1007F00041EB010111F4801F08BF013CF7D041EA31
:10080000060195F0000F18BF704703F00046520034
:1008100043EB030313F4801F08BF013DF7D043EA05
:100820000603704794EA0C0F0CEA135518BF95EABB
:100830000C0F0CD050EA410618BF52EA4306D1D142
:1008400081EA030101F000414FF0000070BD50EA61
:10085000410606BF1046194652EA430619D094EAEB
:100860000C0F02D150EA013613D195EA0C0F05D1D5
:1008700052EA03361CBF104619460AD181EA030129
:1008800001F0004141F0FE4141F470014FF00000E1
:1008900070BD41F0FE4141F4780170BD70B54FF07C
:1008A000FF0C4CF4E06C1CEA11541DBF1CEA1355FC
:1008B00094EA0C0F95EA0C0F00F0A7F8A4EB0504DE
:1008C00081EA030E52EA03354FEA013100F08880D5
:1008D0004FEA03334FF0805545EA131343EA12639E
:1008E0004FEA022245EA111545EA10654FEA002653
:1008F0000EF000419D4208BF964244F1FD0404F50C
:10090000407402D25B084FEA3202B61A65EB030567
:100910005B084FEA32024FF480104FF4002CB6EB24
:10092000020E75EB030E22BFB61A754640EA0C00A4
:100930005B084FEA3202B6EB020E75EB030E22BFE4
:10094000B61A754640EA5C005B084FEA3202B6EB25
:10095000020E75EB030E22BFB61A754640EA9C00E4
:100960005B084FEA3202B6EB020E75EB030E22BFB4
:10097000B61A754640EADC0055EA060E18D04FEA72
:10098000051545EA16754FEA06164FEAC30343EA12
:1009900052734FEAC2025FEA1C1CC0D111F4801FDF
:1009A0000BD141EA00014FF000004FF0004CB6E7D8
:1009B00011F4801F04BF01430020B4F1FD0C88BF77
:1009C000BCF5E06F3FF6AFAEB5EB030C04BFB6EB82
:1009D000020C5FEA500C50F1000041EB045170BD75
:1009E0000EF0004E4EEA113114EB5C04C2BFD4EBA2
:1009F0000C0541EA045170BD41F480114FF0000E26
:100A0000013C90E645EA060E8DE60CEA135594EAA1
:100A10000C0F08BF95EA0C0F3FF43BAF94EA0C0FA4
:100A20000AD150EA01347FF434AF95EA0C0F7FF419
:100A300025AF104619462CE795EA0C0F06D152EA6D
:100A400003353FF4FDAE1046194622E750EA410651
:100A500018BF52EA43067FF4C5AE50EA41047FF462
:100A60000DAF52EA43057FF4EBAE12E74FF0FF3CC7
:100A700006E000BF4FF0010C02E000BF4FF0010C98
:100A80004DF804CD4FEA410C7FEA6C5C4FEA430C11
:100A900018BF7FEA6C5C1BD001B050EA410C0CBF60
:100AA00052EA430C91EA030F02BF90EA020F0020C2
:100AB000704710F1000F91EA030F58BF994208BF29
:100AC00090422CBFD8176FEAE37040F001007047E6
:100AD0004FEA410C7FEA6C5C02D150EA013C07D13D
:100AE0004FEA430C7FEA6C5CD6D152EA033CD3D088
:100AF0005DF8040B704700BF8446104662468C4682
:100B00001946634600E000BF01B5FFF7B7FF0028B4
:100B100048BF10F1000F01BD4DF808EDFFF7F4FFDD
:100B20000CBF012000205DF808FB00BF4DF808ED68
:100B3000FFF7EAFF34BF012000205DF808FB00BF8B
:100B40004DF808EDFFF7E0FF94BF012000205DF8AD
:100B500008FB00BF4DF808EDFFF7CEFF94BF012062
:100B600000205DF808FB00BF4DF808EDFFF7C4FF5B
:100B700034BF012000205DF808FB00BF4FEA4102AE
:100B800012F5001215D211D56FF47873B3EB6252DF
:100B900012D94FEAC12343F0004343EA505311F006
:100BA000004F23FA02F018BF404270474FF0000098
:100BB000704750EA013005D111F0004008BF6FF0D6
:100BC000004070474FF00000704700BF4FEA4102FD
:100BD000B2F1E04324BFB3F5001CDCF1FE5C0DD99B
:100BE00001F0004C4FEAC0024CEA5070B2F1004FE5
:100BF00040EB830008BF20F00100704711F0804FE8
:100C000021D113F13872BCBF01F00040704741F4AC
:100C100080114FEA5252C2F11802C2F1200C10FAB0
:100C20000CF320FA02F018BF40F001004FEAC12394
:100C30004FEAD32303FA0CFC40EA0C0023FA02F338
:100C40004FEA4303CCE77FEA625307D150EA01330E
:100C50001EBF4FF0FE4040F44000704701F00040DE
:100C600040F0FE4040F40000704700BF53B94AB95D
:100C7000002908BF00281CBF4FF0FF314FF0FF30A4
:100C800000F0BEB9ADF1080C6DE904CE00F03CF8FF
:100C9000DDF804E0DDE9022304B0704738B5002236
:100CA000002304460D46FFF741FF28B92046294698
:100CB000BDE8384000F00AB8204605F1004100F0D8
:100CC00005F8404261EB410138BD00BFD0B50C4B87
:100CD000002206460F46FFF7B7FC00F093F90446E2
:100CE000FFF738FC074B0022FFF7AEFC02460B462D
:100CF00030463946FFF7F0FA00F084F92146D0BDBE
:100D00000000F03D0000F0412DE9F047089D8E46BF
:100D100004468846002B4AD18A42174662D9B2FA65
:100D200082F64EB1C6F1200301FA06F820FA03F369
:100D3000B74043EA0808B4404FEA174E1FFA87FC51
:100D4000B8FBFEF1230C0EFB118843EA084301FBBC
:100D50000CF29A4209D9FB1801F1FF3080F0EA80C9
:100D60009A4240F2E78002393B449A1AA3B2B2FB9E
:100D7000FEF00EFB102243EA024300FB0CFC9C45F4
:100D800009D9FB1800F1FF3280F0D6809C4540F273
:100D9000D3803B44023840EA0140A3EB0C0300211E
:100DA0001DB1F3400022C5E90032BDE8F0878B4257
:100DB00005D90DB1C5E9000100210846F5E7B3FAF0
:100DC00083F1002946D1734502D3824200F20581A6
:100DD000841A6EEB030201209046002DE5D0C5E990
:100DE0000048E2E7002A00F09080B2FA82F6002E76
:100DF00040F0A4808A1A030C4FEA174E80B2BCB2AE
:100E00000121B2FBFEFC0EFB1C2243EA024304FB61
:100E10000CF29A4207D9FB180CF1FF3802D29A4221
:100E200000F2E080C4469B1AB3FBFEF20EFB1233C5
:100E300040EA034302FB04F49C4207D9FB1802F189
:100E4000FF3002D29C4200F2CA8002461B1B42EADB
:100E50000C40A5E7C1F120068B4022FA06F71F439C
:100E60000EFA01F420FA06F32EFA06FE4FEA1749AD
:100E7000234300FA01F81FFA87FCBEFBF9F01C0CB3
:100E800009FB10EE44EA0E4400FB0CFEA64502FAF4
:100E900001F209D93C1900F1FF3A80F09C80A64587
:100EA00040F2998002383C44A4EB0E041FFA83FE02
:100EB000B4FBF9F309FB13444EEA044403FB0CFCB6
:100EC000A44508D93C1903F1FF3E80F08280A44577
:100ED0007FD9023B3C4443EA0040A4EB0C04A0FB56
:100EE00002EC64457346E14662D35FD05DB1B8EB76
:100EF000030264EB090404FA06F622FA01F31E4326
:100F0000CC40C5E9006400214FE7B1FBF2FC010CC5
:100F100041EA0E4180B240EA01423B4638463C4637
:100F2000B846BE462026B1FBF7F1A2EB080241EA23
:100F30000C4166E7014618E710462CE7C6F120028F
:100F40002EFA02F3B740B14020FA02F24FEA174EF0
:100F50000A43B3FBFEF8BCB20EFB1833110C41EA96
:100F6000034108FB04F9B04089454FEA104380B2C1
:100F70003ED9791808F1FF3C01D289451FD8A1EB71
:100F80000901B1FBFEF909FB04F80EFB191192B23D
:100F900042EA0142424529D2BA1809F1FF31C4D2CE
:100FA0004245C2D2A9F102013A44BEE7F0459DD2C2
:100FB000BEEB02036CEB070C0138E14696E7A7EBAA
:100FC00009094944A8F1020CB1FBFEF909FB04F838
:100FD000DBE773467FE7504666E70846FDE63B449D
:100FE000023A33E7ACF1020C3B441CE749469CE76C
:100FF000A1EB0901C446B1FBFEF909FB04F8C4E703
:10100000704700BF4A0011D212F5001211D20DD55F
:101010006FF47873B3EB62520ED44FEAC12343F0FE
:10102000004343EA505323FA02F070474FF00000A8
:10103000704750EA013002D14FF0FF3070474FF057
:1010400000007047DFF834D0002103E00C4B5B5800
:10105000435004310B480C4B42189A42F6D30B4ACA
:1010600002E0002342F8043B094B9A42F9D300F016
:10107000C9FC0EF059FA00F08BF97047000005200A
:101080009C2F050800000020780200207802002034
:10109000440D0020FEE7000007B54FF0FF3301903C
:1010A000012201A9034802F088FD019803B05DF810
:1010B00004FB00BF80080020024B1B68D9680EF0BB
:1010C0007DB800BF2402002010B500F0A3FF4FF050
:1010D0004041002000F02AFD00F010FD044600F021
:1010E00019FD00FB04F10120104C01F14051890071
:1010F00000F01CFD00F0C2FE002000F051FD6FF07A
:10110000FF0000F071FD012000F04AFD204600F0D4
:101110006BFD204600F050FD0021084600F046FD22
:1011200064210120BDE8104000F040BD0000FFFF39
:101130002DE9F8430C46174605462DED088B00288F
:1011400000F0828000297FD0002A7DDD0B46024618
:1011500001EB8701B2EC019AF3EC019AB0EE498AF7
:10116000F0EE698A994273D138EE498ADFED497A07
:1011700078EEE98A4FF00009B7EE00BAB4EE678A5C
:10118000F1EE10FAF4EE678A48BFB0EE4B8AF1EE4A
:1011900010FA48BFF0EE4B8A00F0B0FC804600F039
:1011A000B9FC06464346063E152B38BF15231528C5
:1011B000A3F114030AEE103A034638BF15230120A9
:1011C000143B0AEE903A00F0EBFC4FF07F4000F049
:1011D0000BFD4FF0FF2000F0EFFCF8EE6AAAB8EE2E
:1011E0004AAAF4EC016AA8F10603B5EC017A09F108
:1011F000010976EEE96A052237EE497AC6EEA87A49
:101200007BEE677A67EEAA7AFCEEE77A17EE901A21
:10121000C7EE087A0A31052938BF0521B14228BF37
:10122000314689B267EE8A7AFCEEE77A17EE900AC9
:101230000A30052838BF0520984228BF184680B2DA
:1012400000F0B2FD4F45CCD1BDEC088BBDE8F88372
:10125000F2EC017AB3EC017AF4EE497AF1EE10FA8D
:10126000F4EEC87A48BFB0EE679AF1EE10FAB4EE29
:10127000697A77FE887AB0EE678AF1EE10FAB4EEFA
:10128000E87A48BFF0EE479AF1EE10FA77FE288A26
:1012900068E700BFBD3786357047704770B5031DDE
:1012A000D0F844650024A64201D1002070BD5D69DC
:1012B00018468D4206D1DD69002DF7D0002AF5D001
:1012C0009542F3D001342033EDE7000001480CF0E3
:1012D00099BD00BF9802002010B5044640F24C5161
:1012E0000DF08AF9204610BD2DE9F8430F4615464A
:1012F000D0F84495041D0026B14504D14FF00008F4
:101300004046BDE8F8836369A046202B0BD13946DF
:10131000A069FEF77DFF30B9E369002BF0D0002D06
:10132000EED0AB42ECD001362034E5E72DE9F043B6
:1013300084468E4690461F46DDF81C904F4501DDE1
:10134000BDE8F083DCF84465292E0AD9DCF84805AD
:101350000028F5D072462A230B49BDE8F04302F07D
:101360009DBD731C45460CEB4616CCF84435341D28
:101370000FCD0FC495E80F0084E80F0037620137E6
:10138000C6F818E0DAE700BF50BE04087047000056
:101390002DE9F0412DED028BAAB0BFF34F8FBFF3C3
:1013A0006F8F6F4A0021C2F85012BFF34F8FBFF307
:1013B0006F8F536943F400335361BFF34F8FBFF313
:1013C0006F8FC2F88410BFF34F8FD2F8803043F68E
:1013D000E074C3F3C900C3F34E335B0103EA0406B0
:1013E000014646EA81750139C2F86052F9D2203BC4
:1013F00013F1200FF2D1BFF34F8F536943F48033C1
:101400005361BFF34F8FBFF36F8F00F0BDFF10220A
:10141000002119A80DF0E0FF1422002104A80DF00E
:10142000DBFF504B012402261A68192517A842F445
:1014300040421A601B68219603F440430393039BC8
:101440004FF48033CDE917434FF48003CDE91D639A
:101450004FF4C873CDE91F530923229301F08AFC8E
:10146000044618B1002000F0FFFAFEE701F04AFC44
:10147000054618B1204600F0F7FAFEE70F23069064
:101480004FF4A0500621CDE904364FF48053CDE946
:10149000070304A801F056FE044618B1284600F0E0
:1014A000E3FAFEE700F0BCFA2F4830494FF4165338
:1014B000046184614462C0E900130C23C0E9024462
:1014C000436102F0F2FB054618B1204600F0CCFA69
:1014D000FEE7274CFFF7F8FD4FF4C02229462548C8
:1014E0000DF07AFF2368BFF35B8FDA0709D420463B
:1014F0000DF086F828B120480DF096FC20460DF03E
:101500008BF81E4ADFF8948013681D4C13441D4865
:101510001D49C8F800301D4B20601A6802F0BEFC5F
:101520004FF4C0221A49206802F0B8FC114A194948
:10153000206802F0B3FCD8F800100B68CB1A1A88A8
:10154000042A0AD99A8812B18A58032A28D0032378
:101550001149206802F0A2FCFEE70022F7E700BF75
:1015600000ED00E000700040800800200010014005
:101570007C080020000010C099120008F8FE000846
:10158000100900200000002092BE0408F4FE0008AC
:10159000A7BE0408C9BE0408F1BE04080C09002057
:1015A000B54EB64F3568BFF35B8F15F0010510D10E
:1015B00030460DF025F860B12368B14AB1483A6071
:1015C000C7F84455C7F848350DF02EFC30460DF0ED
:1015D00023F8032706F09EF9012302463946A7485F
:1015E00000970226FFF7A2FE012506F0F7FC012373
:1015F00002460421A1480097FFF798FE07F048FC37
:101600000523024609219D4800930123FFF78EFE22
:1016100009F066FC01230246112198480096FFF765
:1016200085FE09F059FC01230246009619469348AD
:10163000FFF77CFE09F0BCFF0123024628218F48FA
:101640000096FFF773FE0AF017FC2B4602461621A0
:101650008A480095FFF76AFE0BF04CFD2B460246C8
:10166000582186480096FFF761FE0BF0CDF82B4617
:101670000246312181480097FFF758FE07F0E8FC49
:101680002B4602460E217D480096FFF74FFE07F0DD
:1016900087F82B4602461C2178480096FFF746FE45
:1016A00004F06AFF2B460246002174480096FFF7BB
:1016B0003DFE08F059FD2B46024653216F48009627
:1016C000FFF734FE0AF0C4FC2B46024619216B4892
:1016D0000096FFF72BFE09F03DFE2B4602467221D5
:1016E00066480096FFF722FE07F0AEFF2B46664DD8
:1016F0000246122161480097FFF718FE2B68BFF3DE
:101700005B8FDB0715D428460CF07AFF88B123687D
:101710005A4A01934FF4C023D8F8001000935B4855
:101720005B4B0CF021FB5B480DF07EFB28460CF078
:1017300073FF5648584E30600CF082FB054650B19E
:101740005649206802F0AAFB4FF4C0225449206891
:1017500002F0A4FBFEE73068276860300BF092FDD2
:10176000504902463846504F02F098FB29463068EF
:101770000CF046FC2946386030680CF025FC4B4DD7
:101780003B6828609A694A4958680DF0F4FE306851
:101790000CF0D2FB20B14749206802F07FFBFEE746
:1017A0002A6820681AB153680BB193691BB9424982
:1017B00002F074FBFEE71278404902F06FFB2B68E1
:1017C0003F495A68206802F069FB2B685B6803F1A7
:1017D0006042B2F5A02F0BD303F17F5202F5401205
:1017E000B2F5E00F04D33749206802F057FBFEE75B
:1017F00093F900203449206802F050FB2B68DFED9C
:10180000337A93ED038A1E6968EE277A5D68304962
:101810002068FDEEE77A17EE902A02F03FFB2D4993
:101820002068324602F03AFB05F139042B4604A841
:1018300017A993F90220921B07EE902A13F9032BA4
:10184000921BF8EEE77A9C4207EE102A67EE887A40
:10185000B8EEC77AE1EC017A27EE087AA0EC017ABB
:10186000E7D1132217A904A8FFF762FC4FF47A709E
:1018700000F0A8FDFAE700BF2C0300203003002091
:10188000FCE104088D130008940200209802002057
:10189000000010C0CD1200080809002038BF04085D
:1018A00052BF040888BF0408040900200009002072
:1018B0000CE20408A4BF0408C1BF0408E0BF040888
:1018C00002C0040816C004084FC0040800007A448F
:1018D00062C0040873C004081A4B01211A481A6B2D
:1018E00042F0010210B588B01A631A6B072402F0A7
:1018F00001020092009A1A6B42F002021A631A6BFC
:1019000002F002020192019A5A6C42F010025A64EB
:101910004FF400725B6C079403F010030293029B78
:101920000223CDE903230323CDE9051303A900F026
:10193000C9FF802303A905480393079400F0C2FF61
:1019400008B010BD00380240000002400004024010
:101950007047FEE7FEE7FEE7FEE7704700F020BDB8
:101960000120704708B50DF0D9FD162303604FF034
:10197000FF3008BD08B50DF0D1FD16230360FEE76A
:1019800070B50D4614460E46731B9C4201DC204682
:1019900070BDAFF3008006F8010BF5E770B50D469A
:1019A00014460E46731B9C4201DC204670BD16F89F
:1019B000010BFFF771FBF5E74FF0FF3070474FF475
:1019C000005300204B607047012070470020704793
:1019D0000A4A116808B5034609B909491160106837
:1019E000694603448B4206D90DF098FD0C23036031
:1019F0004FF0FF3008BD1360FCE700BF1409002062
:101A0000480D0020054BD3F8882042F47002C3F83B
:101A100088204FF000629A60704700BF00ED00E040
:101A200030B5044687B0C8B90D4B022501A90D4851
:101A30001A6B42F480721A631B6B03F48073009379
:101A4000009B0123CDE9015303930323049300F08A
:101A500039FF22462946034801F012F807B030BD8D
:101A6000003802400020024020B901220221024831
:101A700001F006B8704700BF002002402DE9F3478F
:101A80001A4C98464FF440330E4617463421636093
:101A90008146174B2046DDF82CA01A68154B01FB38
:101AA00002339D6CAB1E5D425D410A9B6D00E3609D
:101AB000114BA560236000F0FEFDA0B94946204609
:101AC00000F0BAFE78B93B46324651462046CDF882
:101AD000008000F01AFE30B90A21204602B0BDE8AD
:101AE000F04700F02CBE02B0BDE8F087B809002036
:101AF000B4090020F809002000B00240034B342153
:101B00001A68034B01FB0233186E7047B4090020BA
:101B1000F8090020034B34211A68034B01FB023300
:101B2000586E7047B4090020F809002070B50025F0
:101B30008EB00E4604460195FFF7E0FFCDE90205A1
:101B4000FFF7E8FFFF234FF4C0620A96ADF8345068
:101B50008DF83650CDE906350723CDE90405CDE9EA
:101B60000823FFF7CBFF0B90FFF7D4FF224601A914
:101B70000C90084801F076F80C22074B4FF0FF312B
:101B800054431A195160054991604FF07F421A5130
:101B90000EB070BDF80900209C0900201000002044
:101BA000014B1860704700BFB4090020024601488D
:101BB00001F085B8F8090020034B0C221B68534341
:101BC000024AD050704700BFB40900209C09002091
:101BD000034B0C211A68034B01FB023398607047DA
:101BE000B40900209C0900200B4B73B51E68054604
:101BF000FFF784FF0446FFF78DFF342207490346B1
:101C00000195304602FB0611002200922246C96D62
:101C1000FFF734FF02B070BDB4090020F8090020BE
:101C2000144B2DE9F7431E681746134B34228846A0
:101C3000054602FB0633DC6DD3F84890FFF75EFFE4
:101C40000C230E4A00FB0850B9F1020F06FB03F308
:101C500008BF04EB4001D35818BF04EB80013A469B
:101C600030460193002300930123FFF707FF03B0E1
:101C7000BDE8F083B4090020F80900209C09002089
:101C80000E4B2DE9F0410F46144634211A680C4BD7
:101C9000054601FB0233D3F84880DE6DFFF72EFFC7
:101CA000B8F1020F00FB075004D1A4B226F810408F
:101CB000BDE8F08146F82040FAE700BFB4090020F3
:101CC000F80900202DE9F04F540085B082468B467C
:101CD0001546C4F103044FF000091AFA89F30C22E7
:101CE000AFB29BB2ABEB07011FFA89F600932C4B06
:101CF00089B200981B68029153432A4A52F8038024
:101D00004246FFF7BDFFAAEB0603424602999BB28B
:101D100018460193FFF7B4FF07EB0A03ABEB06018C
:101D200042469BB25E4489B2184602930391FFF784
:101D3000A7FFAAEB07035F44039942469BB2BFB2D9
:101D400018460393B6B2FFF79BFF42463946009808
:101D5000FFF796FF424639460198FFF791FF42464A
:101D600031460298FFF78CFF039B424631461846E6
:101D7000FFF786FF002CB1BF0634A9EB05030A3438
:101D800005F1FF35B8BF04EB890409F10109A8BFCB
:101D900004EB83044D45A0D205B0BDE8F08F00BF31
:101DA000B40900209C0900202DE9F04FDFF8C4B0F1
:101DB000540091461746DBF800300C22DFF8B8A03B
:101DC0000E465343C4F10304002585B080465AF8FB
:101DD0000300FFF7F1FEAFB1BAB216FA85F1ABB26C
:101DE000A8EB0200520089B2039380B292B2019034
:101DF0000292FFF715FF039B029AF11A019889B22C
:101E0000FFF70EFFA5B1AAB2BBB2A8EB02005200C9
:101E1000F11A80B292B289B20190CDE90223FFF7A4
:101E2000FFFE039B029A9919019889B2FFF7F8FE09
:101E3000002CB1BF0634EB1B0A3407F1FF37B8BFE3
:101E400004EB850405F10105A8BF04EB8304AF4250
:101E5000C1D2DBF800300C22314653435AF803005C
:101E6000FFF7AAFE4A46404605B0BDE8F04FFFF72F
:101E700029BF00BFB40900209C09002008B5094B08
:101E80004FF4805108481A68936943F00103936145
:101E9000012200F0F5FD012208210448BDE80840B8
:101EA00000F0EEBDF80900200020024000280240AA
:101EB0004B4B4C485A6C42F08062F0B58FB05A647C
:101EC0005A6C02240E2509A902F080624FF4805753
:101ED000454E0092009A1A6B42F400021A631A6B84
:101EE00002F400020192019A1A6B42F010021A6386
:101EF0001A6B02F010020292029A1A6B42F0400230
:101F00001A631A6B02F040020392039A1A6B42F4AE
:101F100080721A631A6B02F480720492049A1A6B2C
:101F200042F400721A631A6B02F400720592059A69
:101F30001A6B42F480621A631A6B02F48062069292
:101F4000069A1A6B42F480721A631A6B02F480725A
:101F50000792079A1A6B42F480621A631B6B0D9505
:101F600003F480630893089B1023CDE90934002310
:101F7000CDE90B3400F0A6FC092309A91B480D93F9
:101F8000CDE9097400F09EFC4FF4664309A9304680
:101F90000D95CDE9093400F095FC4EF6FF7309A9C3
:101FA00013480D95CDE9093400F08CFCF72309A9FD
:101FB0000D950125CDE909340E4C204600F082FC38
:101FC00009A9304609970A9500F07CFC082309A965
:101FD0002046CDE9093500F075FC0FB0F0BD00BF1B
:101FE0000038024000100240002002400018024069
:101FF0000024024000280240054808230360C02353
:1020000043610523C3614FF48033C36201F058B9C3
:102010001809002010B52822224C0923352140F24E
:102020001B1040F21D1CC4E905230B23C4E9071350
:1020300040F215230021C4E9093040F2352320463F
:10204000C4E90B3CFFF7D8FF4FF4F07E4FF48873E0
:102050002046C4E918E30023A38684F83630C4E997
:102060000133C4E90333104B236000F048FE0146FE
:1020700010B92046FFF71CFF0A4800F087FD012237
:102080004FF48051094800F0FBFC01220821084868
:1020900000F0F6FC00F016F90648FFF799FD002065
:1020A00010BD00BFF8090020006801400020024078
:1020B00000280240100000202DE9F743214C0126A2
:1020C000214D4FF000081027214681464FF6FF7240
:1020D0002846CDF80480C4E90067C4E9026801F02D
:1020E0009AFB304600F06EF9022321464FF6FF724C
:1020F0002846C4E90037C4E9026801F08CFB0323D9
:1021000021464FF6FF722846C4E900370823C4E988
:10211000023801F080FB4FF4087321464FF6FF723E
:10212000019304232846A660C4E90037019BE360BD
:1021300001F071FB4946284603B0BDE8F04301F0C9
:1021400082BB00BF000B00202C0B0020544B9A6B6D
:1021500042F0010270B58EB09A639A6B064609A9E7
:10216000504802F00102504C00250192019A1A6B6E
:1021700042F480021A631A6B02F480020292029AFD
:102180001A6B42F004021A631A6B02F00402039203
:10219000039A1A6B42F008021A631A6B02F00802E3
:1021A0000492049A1A6B42F010021A631A6B02F03E
:1021B00010020592059A1A6B42F020021A631A6BFC
:1021C00002F020020692069A1A6B42F040021A634D
:1021D0001A6B02F040020792079A1A6B42F08002D3
:1021E0001A6301221B6B03F080030893089B0223F0
:1021F000CDE90A320C930C230D930823099300F0C8
:1022000061FB4CF2037309A92848099300F05AFBBB
:102210004FF6837309A92648099300F053FB4FF644
:102220003F0309A92348099300F04CFB48F23313FC
:1022300009A92148099300F045FB282309A91F4853
:10224000099300F03FFB80234FF400714FF480505E
:1022500025633463E561A663C4E901534FF48063E9
:10226000C4E903134FF48043C4E905034FF400337A
:102270002046C4E908350323C4E90A35104B23601E
:1022800000F0ACF9204600F02BF92A460F21382047
:1022900000F0BCF8382000F0EBF80EB070BD00BFC5
:1022A0000038024000080240A00A0020000C024052
:1022B000001002400014024000180240001C0240BE
:1022C0001064024038B5194C0721194B0422194DEE
:1022D0004FF4006023600223E260AB61C5E9003186
:1022E000C5E90221C5E90433102240230021C4E9D5
:1022F00004234FF48073A162C4E906314FF4805384
:10230000C4E908032046C4E90111FFF71FFF29466D
:102310002046094C01F05FFA003818BF01202070F8
:1023200040F20360FFF7C8FE207838BD2C0B002078
:10233000400100A0100B00200800002070470000A2
:1023400038B50E4B05461A784FF47A73B3FBF2F3A7
:102350000B4A1068B0FBF3F000F098F8044658B947
:102360000F2D09D8024629464FF0FF3000F04EF8F5
:10237000044B20461D6038BD0120FCE70900002009
:10238000040000200C00002008B5032000F02CF809
:102390000020FFF7D5FFFFF7D1FF002008BD0000A8
:1023A000034A044B11681B780B441360704700BF4D
:1023B000600B002009000020014B1868704700BF27
:1023C000600B002038B50446FFF7F6FF0546631C96
:1023D0001EBF044B1B78E418FFF7EEFF431BA3421C
:1023E000FAD338BD0900002007490302CA6803F484
:1023F000E06322F4E0621204120C134343F0BF6363
:1024000043F40033CB60704700ED00E0164B30B56D
:10241000DC68C4F30224C4F10703251D042B28BF84
:102420000423062D4FF0FF358CBF033C002405FA32
:1024300003F3002805FA04F521EA030322EA050262
:1024400003FA04F343EA02034FEA0313DBB206DBA9
:1024500000F1604000F5614080F8003330BD00F0CD
:102460000F00024A1354F9E700ED00E014ED00E01C
:10247000002807DB4109012300F01F00024A8340C6
:1024800042F82130704700BF00E100E00138B0F1B0
:10249000807F0BD24FF0E023054AF02158610020E5
:1024A00082F82310072298611A6170470120704753
:1024B00000ED00E0036802461820D9B21039B1FBE4
:1024C000F0F010B5054C5F29205CD06523F47F70D7
:1024D00020F0030088BF0430906510BD2412050869
:1024E00070B50446FFF768FF0546002C60D0002356
:1024F000226884F83430022384F83530136823F0DE
:102500000103136022681368D8072ED41368324879
:10251000A1691840D4E901352B43E5682B432569AF
:102520002B4365692B43E5690B432B43256A2B43FA
:102530000343606A042802BFD4E90B5635432B439A
:1025400004281360536923F0070343EA000335D1DD
:10255000A06AE56A03438DB391B9012820D030F019
:1025600002012BD1E90129D51DE0FFF725FF401B12
:102570000528C7D920230320636584F8350070BD82
:10258000B1F5005F16D1032818D801A151F820F049
:10259000A725000865250008A7250008A125000833
:1025A000B5F1C07F0AD140236365012384F835303B
:1025B0000120E4E70228F6D90328D3D0536120464E
:1025C000FFF778FFE26D3F239340836000200123F3
:1025D000606584F83530D2E73F8010F038B50546A5
:1025E00020B390F83530022BDCB21DD003680024F4
:1025F0001A6822F001021A6021221C605C609C6053
:10260000DC601C615A61FFF755FFEA6D3F23934080
:1026100083606C6585F8344085F83540C5E90F4422
:10262000C5E91144C5E91344204638BD0124FBE740
:10263000F0B50468059D666C45EA0345436806F0FD
:102640004046B3F5403F45EA06056564E2632FD195
:10265000806801F07F4601F47F0301F47F42CDB230
:1026600003281AD8DFE800F00402060E21F07F41AB
:10267000A163F0BDD90C920AC90241EA421141EAB4
:10268000D501F5E7DB0CD20A9B02F10F43EA4213B6
:1026900043EAD50343EAC131EAE71B0D120B1B02E3
:1026A000360F43EA021343EA151343EA0631DFE724
:1026B000E160DEE7704710B5044620B390F839308A
:1026C00003F0FF021BB980F83820FFF7F3FF022365
:1026D0006168002084F8393023681A6822F4403297
:1026E0000A43A1681A605A6B22F007020A43E168A4
:1026F0005A631A6C6FF30D020A431A640123E063F4
:1027000084F8393010BD0120FCE773B590F83850DB
:102710000446012D4FF002050FD080F839500126F4
:10272000069D80F838600095FFF782FF2268002040
:1027300013683343136002B070BD2846FBE70023E3
:1027400073B50193044603680D461B68DB0718D474
:102750002268D369526A13439E0606D5FFF72CFE02
:10276000064623685A68D2063FD523681222002005
:102770009A60012384F83930002384F8383002B09D
:1027800070BDFFF719FE064623685A689207DFD42A
:102790005A680192019A12F0210F14D0019A9506FD
:1027A00003D5E26B42F00202E263019AD00703D53F
:1027B000E26B42F00102E26321229A6004230120CD
:1027C00084F83930D8E7691CDFD0FFF7F5FD801BAE
:1027D000A84201D8002DD7D1E36B032043F020039A
:1027E000E363032384F83930C6E75A680192019AFB
:1027F00012F0290F16D0019A160703D5E26B42F0AA
:102800000402E263019A950603D5E26B42F00202EC
:10281000E263019AD00703D5E26B42F00102E26362
:102820002922CAE7691C9DD0FFF7C6FD801BA8427C
:10283000D2D8002D95D1CFE7F0B590F838200346D7
:102840000220012A2BD0012283F839000E011C4FEF
:1028500083F8382003EB0112D2E90740556A44EAB5
:102860000040093C012C96BF05F07F4240EA05601C
:1028700010431A68A1B9516A012C01EA070141EA23
:10288000000151629969916103D8596A21F07F4131
:1028900091620122002083F8392083F83800F0BDCE
:1028A000D169012C01EA070141EA0001D16103EB82
:1028B000060189691161ECD825F07F451562E8E7CA
:1028C000F0FFFC002DE9F74F0023DFF8B0814FF057
:1028D0000F09684A01240E689C4004EA0605B443C7
:1028E00040F0AF804C684FEA430C032624F0100EF2
:1028F00006FA0CF60EF1FF37F643012F10D8876861
:1029000007EA060ACF6807FA0CF747EA0A07876062
:10291000476827EA050A27099F4047EA0A074760F0
:10292000C768BEF1020F07EA060A8F6807FA0CF7BC
:1029300047EA0A07C76014D14FEAD30E03F0070A2B
:1029400000EB8E0E4FEA8A0ADEF8207009FA0AFBC5
:1029500027EA0B0B0F6907FA0AF747EA0B07CEF8CD
:1029600020700768374004F0030606FA0CF63E4371
:102970000660E60065D5D8F8446023F0030703F04D
:10298000030C46F4804607F180474FEA8C0CC8F8E8
:10299000446007F59C37D8F8446009FA0CFE06F449
:1029A00080460196019EBE6826EA0E0E324EB04267
:1029B0004ED006F58066B0424CD006F58066B04237
:1029C0004AD006F58066B04248D006F58066B0422F
:1029D00046D006F58066B04244D006F58066B04227
:1029E00042D006F58066B04240D006F58066B0421F
:1029F0003ED006F58066B04214BF0A26092606FAC4
:102A00000CF614F4803F46EA0E06BE606FEA050736
:102A100016680CBF3E402E4314F4003F1660566803
:102A20000CBF3E402E4314F4801F566096680CBFC6
:102A30003E402E43A4029660D66854BF3E402E43CB
:102A4000D6600133102B7FF445AF03B0BDE8F08FA3
:102A50000026D4E70126D2E70226D0E70326CEE7F8
:102A60000426CCE70526CAE70626C8E70726C6E7F8
:102A70000826C4E7003C0140000002400038024044
:102A80000AB1816170470904FBE70000D2010068C8
:102A9000D1F800C0843283182DE9F043C6680CF1E8
:102AA00001075D684FF0000E4C68C6F30B4605F455
:102AB0007045D1F818902644A4EB0C045D60C568FD
:102AC000C5F30B453D4445EA06455D60C668CD68E3
:102AD000C6F30A062E449D6805F470459D608D6816
:102AE000C7680135C7F30A073D4445EA06450E6944
:102AF0009D60072E1D6925F007051D611E6188BFB9
:102B0000012691F832709D6991F83180C3F818E080
:102B100091F8305045EA096545EA082545EA074538
:102B20009D615D6925F0FF055D614D695D61DD6950
:102B300025F4E06525F00705DD61D1E9075745EA91
:102B40000705DD619D6A4D6AC3F828E09D629CBF60
:102B50000C4DAE5DDD6A744305F0E0250334DD62A3
:102B60008D6AC96A754344EA0544DC621C6B6FF3E5
:102B70000A041C631963835843F001038350BDE8C2
:102B8000F08300BF2C1205087047000038B50446DA
:102B9000002863D090F8A13003F0FF021BB980F841
:102BA000A020FFF7F1FF022384F8A13023689A697F
:102BB00022F070429A619969D4E901200243E068E9
:102BC00002432069024360690A4325499A619A6871
:102BD0000A409A609A6842EA0042A0690243E069AA
:102BE0009A60DA680A40DA60DA6842EA0042206AEB
:102BF0000243606ADA601A690A401A611A6942EA95
:102C00000042A06A02431A615A690A40E16A5A61A5
:102C10005A6942EA0142216B0A435A61DA6A94F81E
:102C2000350002F07F4294F83610DA62DD6A94F8DB
:102C300034202A4342EA0022002042EA0142DA62BA
:102C40005A6B42F006025A639A6942F001029A6195
:102C50000123C4F8A40084F8A13038BD0120FCE7AA
:102C600000F800F02DE9F04190F8A03006460F463C
:102C70009446012B4FF002001FD034244FF001087E
:102C80000D4686F8A10004FB026486F8A080383463
:102C90000FCD0FC40FCD0FC40FCD0FC42B6830461E
:102CA000624639462360FFF7F1FE33680020C3F81F
:102CB000248086F8A18086F8A000BDE8F08170B578
:102CC00090F8A0300446012B4FF0020315D080F895
:102CD000A13034230126534380F8A060C518E9646D
:102CE00003F138010144FFF7D1FE236800205E6242
:102CF00084F8A16084F8A00070BD1846FCE790F845
:102D0000A1007047194B37B51A6C194C42F080522C
:102D10001A641B6C03F080530193019B236843F4F6
:102D200080332360FFF748FB05466368DA030CD560
:102D300023680F4D43F400332360FFF73DFB044647
:102D40006B689B030AD5002006E0FFF735FB401BAC
:102D5000B0F57A7FE9D9032003B030BDFFF72CFB33
:102D6000001BB0F57A7FEBD9F5E700BF00380240D1
:102D7000007000402DE9F341044640B30368DE07CC
:102D800010D423689D0761D42368190700F1A68039
:102D900023685A0700F1C780A269002A40F03081F9
:102DA00000202CE0944B9A6802F00C02042A07D011
:102DB0009A6802F00C02082A0BD15B68590208D508
:102DC0008D4B1B689A03DCD56368002BD9D1012099
:102DD00015E06368884DB3F5803F13D12B6843F449
:102DE00080332B60FFF7E8FA834E054633689B0378
:102DF000C7D4FFF7E1FA401B6428F7D9032002B0DB
:102E0000BDE8F0819BB92B6823F480332B602B68DD
:102E100023F480232B60FFF7CFFA06462B689F032D
:102E2000AFD5FFF7C9FA801B6428F7D9E6E7B3F5F9
:102E3000A02F2B6803D143F480232B60CEE723F42B
:102E400080332B602B6823F48023CAE76A4B9A688F
:102E500012F00C0F07D09A6802F00C02082A11D168
:102E60005B685D020ED4644A1368990702D5E36873
:102E7000012BACD11368216923F0F80343EAC103A5
:102E8000136081E7E3685C4DBBB12B6843F001033D
:102E90002B60FFF791FA06462B689B0707D52B6836
:102EA000226923F0F80343EAC2032B606CE7FFF7C3
:102EB00083FA801B0228EFD9A0E72B6823F00103D7
:102EC0002B60FFF779FA06462B689F077FF55CAF0A
:102ED000FFF772FA801B0228F6D98FE76369464D27
:102EE00083B16B6F43F001036B67FFF765FA06462A
:102EF0006B6F9B073FF54CAFFFF75EFA801B022814
:102F0000F6D97BE76B6F23F001036B67FFF754FA89
:102F100006466B6F9F077FF53BAFFFF74DFA801BAF
:102F20000228F6D96AE7344B1A6CD50027D41A6CFC
:102F3000012742F080521A641B6C03F08053019306
:102F4000019B2E4D2B68D8051BD5A3682A4D012B5C
:102F500027D12B6F43F001032B6741F28838FFF72D
:102F60002BFA254E0546336F9A073FD5002F3FF4C5
:102F700013AF214A136C23F0805313640CE700272E
:102F8000DFE72B6843F480732B60FFF715FA0646E2
:102F90002B68D905D9D4FFF70FFA801B6428F7D91D
:102FA0002CE7ABB92B6F41F2883823F001032B6774
:102FB0002B6F23F004032B67FFF7FEF906462B6FF8
:102FC0009B07D3D5FFF7F8F9801B4045F7D915E7E4
:102FD000052B2B6F03D143F004032B67B9E723F0D4
:102FE00001032B672B6F23F00403B5E7FFF7E4F928
:102FF000401B4045B7D901E700380240007000404F
:10300000384DAB6803F00C03082B41D02B68022A23
:1030100023F080732B602ED1FFF7CEF906462B6884
:10302000990122D4A36A5B085A1ED4E907310B43E5
:1030300043EA0243626A43EA8213E26A43EA0263B2
:1030400043F000536B602B6843F080732B60FFF7F5
:10305000B3F9244D04462B689A013FF5A1AEFFF762
:10306000ABF9001B0228F6D9C8E6FFF7A5F9801BCB
:103070000228D4D9C2E6FFF79FF904462B689B01CA
:103080007FF58EAEFFF798F9001B0228F6D9B5E65A
:10309000012A6B683FF49BAE03F48002E1698A4227
:1030A0007FF495AE03F03F02216A8A427FF48FAE2F
:1030B00047F6C072616A1A40B2EB811F7FF487AE97
:1030C000A26A03F440315208013AB1EB024F7FF497
:1030D0007EAEE26A03F07063B3EB026F14BF0120AF
:1030E00000208CE600380240134908B58B6803F0D5
:1030F0000C03042B1BD0082B1BD14A684B68496872
:1031000002F03F0213F48003C1F388111ABF0B4889
:1031100000230B48A1FB0001FDF7A8FD064B5B68EF
:10312000C3F3014301335B00B0FBF3F008BD034878
:10313000FCE70348FAE700BF0038024040787D0111
:103140000024F4002DE9F0410D46044610B9012099
:10315000BDE8F081454A136803F00F038B4228D382
:1031600021688F0730D4C80743D4404A136803F05E
:103170000F03AB4266D8226851076FD4130707D5F7
:103180003B4A2169936823F4604343EAC103936097
:10319000FFF7AAFF364B374A9B68C3F30313D35C90
:1031A000D840354B1860354B1868FFF7C9F8002038
:1031B000CEE7136823F00F030B431360136803F08B
:1031C0000F038B42C3D1CBE711F0040F284B03D080
:1031D0009A6842F4E0529A600E0703D59A6842F466
:1031E00060429A609A68A06822F0F00202439A60F6
:1031F000B9E761681E4B01291A681BD112F4003F20
:10320000A5D09A6841F28838194F22F003020A4388
:103210009A60FFF7D1F80646BB68626803F00C03BA
:10322000B3EB820FA1D0FFF7C7F8801B4045F3D95D
:1032300003208DE7022902D112F0007FE0E712F0AF
:10324000020FDDE7136823F00F032B4313601368AD
:1032500003F00F03AB427FF47AAF8CE70449E068D8
:103260008B6823F4E05303438B6087E7003C024004
:103270000038024014120508040000200C00002051
:10328000044B054A9B68C3F38223D35C034A10684E
:10329000D8407047003802400C1205080400002096
:1032A000044B054A9B68C3F34233D35C034A10685E
:1032B000D8407047003802400C1205080400002076
:1032C00003682DE9F74313F0010604460BD0AD4A1D
:1032D000916821F400019160466B91683143B6FA20
:1032E00086F67609916013F4002512D0A549E56BA6
:1032F000D1F88C20B5F5801F22F4401208BF0126BA
:1033000042EA050216BFB5FA85F500256D09C1F838
:103310008C20D90210D59B48216CD0F88C20B1F5B7
:10332000800F22F4400242EA0102C0F88C2000F033
:103330008681002908BF012513F0807F18BF012670
:103340009A0632D58F4B904F1A6C42F080521A6415
:103350001B6C03F080530193019B3B6843F4807323
:103360003B60FFF729F880463B68DB0540F1698147
:10337000844F226B3B6F13F4407340F06D81236BDD
:1033800003F44072B2F5407F7E4A40F08A81916832
:1033900023F0704021F4F81120F440700143916053
:1033A000C3F30B03116F0B4313672368DA060CD5C5
:1033B000744AD2F88C1021F08071C2F88C10D2F8C7
:1033C0008C10A06B0143C2F88C105F0408D56D49C6
:1033D000606ED1F8902022F440320243C1F8902070
:1033E000180408D56749A06ED1F8902022F4402235
:1033F0000243C1F89020D90308D56249E06ED1F8A4
:10340000902022F440120243C1F890209A0308D57C
:103410005C49206FD1F8902022F440020243C1F8A9
:1034200090205F0608D55749606CD1F8902022F0B3
:1034300003020243C1F89020180608D55149A06C38
:10344000D1F8902022F00C020243C1F89020D90557
:1034500008D54C49E06CD1F8902022F030020243AC
:10346000C1F890209A0508D54649206DD1F89020E2
:1034700022F0C0020243C1F890205F0508D54149FF
:10348000606DD1F8902022F440720243C1F8902080
:10349000180508D53B49A06DD1F8902022F4406270
:1034A0000243C1F89020D90408D53649E06DD1F81F
:1034B000902022F440520243C1F890209A0408D58B
:1034C0003049206ED1F8902022F440420243C1F8E6
:1034D00090205F0208D52B49A06FD1F8902022F0F0
:1034E00080620243C1F8902098020CD52548E16F14
:1034F000D0F89020B1F1006F22F0006208BF0125E2
:103500000A43C0F8902013F0080F18BF0125590393
:1035100008D51C49606FD1F8902022F04072024318
:10352000C1F890201A0209D51649D4F88000D1F8C4
:10353000902022F080520243C1F89020012E00F02A
:10354000B480B3F1007F00F0B080012D75D10D4D36
:103550002B6823F080532B60FEF72EFF06462B6866
:103560009F0000F1268121680E0301D5E36B1BB19A
:10357000CD0222D5236C03BB024AD2F88830D2F8A0
:10358000880003E0003802400070004003F440333C
:1035900000F0E0400343606943EA8013A06943EA16
:1035A0000063C2F88830D2F88C30A06A23F4F85354
:1035B000013843EA0023C2F88C30880215D5E36F46
:1035C000B3F1006F11D1824AD2F88830D2F8880066
:1035D00003F0706300F0E0400343606943EA801346
:1035E000206A43EA0043C2F888300A0719D5784AAE
:1035F000D2F88810D2F8883001F0706103F44033BB
:103600000B43616943EA8113E16943EA0173C2F83C
:103610008830D2F88C30E16A23F440330B43C2F88F
:103620008C306B4C236843F080532360FEF7C4FE5C
:10363000054623689B0040F1C380002009E0012675
:103640007AE6FEF7B9FEA0EB080064287FF68CAEA0
:10365000032003B0BDE8F08302F4407293423FF4CC
:103660008EAE3B6F3A6F23F4407342F480323A6778
:103670003A6F22F480323A673B673B6FD8077FF599
:103680007EAEFEF799FE41F2883980463B6F99077E
:103690003FF575AEFEF790FEA0EB08004845F5D962
:1036A000D6E7916821F4F81179E6494E336823F0A2
:1036B00080633360FEF780FE074633681B0172D4D7
:1036C0002268D70712D5636B83B9D6F88430D6F851
:1036D000841003F4403301F070610B43616843EAE6
:1036E0008113A16843EA0173C6F88430160303D539
:1036F000E36BB3F5801F05D0D0021ED5236CB3F564
:10370000800F1AD13249D1F88430D1F8840003F403
:10371000403300F0E0400343606843EA8013E06810
:1037200043EA0063C1F88430D1F88C00636A20F06A
:103730001F00013B0343C1F88C30D10111D524494E
:10374000D1F88430D1F8840003F0706300F0E040D9
:103750000343606843EA8013206943EA0043C1F8E9
:10376000843092010DD5236962681B0443EA8213F9
:10377000E26843EA0263A26843EA0273144AC2F8A9
:103780008430134E336843F080633360FEF714FED9
:10379000074633681B013FF5D8AEFEF70DFEC01B90
:1037A0006428F6D954E7FEF707FEC01B642884D9C5
:1037B0004EE7FEF701FE801B64287FF6D0AE47E798
:1037C000FEF7FAFD401B64287FF633AF40E700BFE9
:1037D00000380240704738B50D460446C8B190F82D
:1037E0002C3003F0FF021BB980F82D20FFF7F2FF09
:1037F0000223211D206884F82C3000F085FA6268CD
:103800002946206800F0B8FA0123002084F82C3003
:1038100038BD0120FCE738B590F82C3004460D4641
:10382000022BD8B20CD00223206884F82C3000F090
:10383000E5FA2B68022B04D10523002084F82C30F4
:1038400038BD0123F9E710B590F82C300446022B5F
:10385000D8B209D00223206884F82C3000F0E1FAB5
:103860000123002084F82C3010BD000038B5C16958
:1038700004460368826800691D6802436069024368
:1038800076480A432840256A0243E0681A605A686D
:1038900022F4405202435A60A26998682A4320F4F5
:1038A000306002439A606E4A934213D16D4BD3F855
:1038B000903003F00303022B00F0B180032B00F0E3
:1038C000A680012B63D0B1F5004F00F08E80FFF78A
:1038D000E7FC12E0644A934222D1624BD3F8903065
:1038E00003F00C03082B00F09A8015D8002B4ED162
:1038F000B1F5004F72D0FFF7C3FC636800EB5300D3
:10390000B0FBF3F080B24FF6EF73A0F110029A42D1
:1039100004D82368D8609CE00C2B78D0012099E073
:10392000524A934209D14F4BD3F8903003F0300301
:10393000202B74D0DAD9302BEFE74D4A934209D1CE
:10394000484BD3F8903003F0C003802B67D0CDD91B
:10395000C02BE2E7474A93420BD1424BD3F8903059
:1039600003F44073B3F5007F59D0BFD9B3F5407F5E
:10397000D3E7414A934213D13A4BD3F8903003F442
:103980004063B3F5006F4AD007D8002B9BD0B1F548
:10399000004F35D1FFF7A8FB22E0B3F5406FBCE73D
:1039A000364A93420BD12F4BD3F8903003F4405357
:1039B000B3F5005F33D099D9B3F5405FADE7304A36
:1039C0009342ABD1274BD3F8903003F44043B3F587
:1039D000004F24D08AD9B3F5404F9EE7FFF750FC43
:1039E0006268530803EB400322E0FFF759FCF7E756
:1039F000500800F5740000F51050B0FBF2F081E7BC
:103A0000FFF772FB79E7500800F50040F5E7B1F5E4
:103A1000004F6268F7D1530803F5803308E0B1F531
:103A2000004F6268E4D1530803F1F47303F5904347
:103A3000B3FBF2F39BB24FF6EF72A3F11001914288
:103A40003FF66CAF23F00F02C3F342032168134328
:103A5000CB6000200023C4E9183338BDF369FFEFC1
:103A6000001001400038024000440040004800407F
:103A7000004C00400050004000140140007800401D
:103A8000007C0040436ADA0710B506D50168846AF5
:103A90004A6822F4003222434A609C0706D5016836
:103AA000C46A4A6822F4803222434A60590706D524
:103AB0000168046B4A6822F4802222434A601A0794
:103AC00006D50168446B4A6822F4004222434A60EA
:103AD000DC0606D50168846B8A6822F48052224392
:103AE0008A60990606D50168C46B8A6822F4005280
:103AF00022438A605A0610D50168046C4A68B4F5FE
:103B0000801F22F4801242EA04024A6005D14A680A
:103B1000446C22F4C00222434A601B0606D50268A8
:103B2000816C536823F400230B43536010BD2DE9CF
:103B3000F843DDF8209005460F46164698462A6859
:103B4000D36937EA03030CBF01230023B34201D03A
:103B500000201BE0B9F1FF3FF2D0FEF72DFCA0EBF7
:103B600008002C684845236802D8B9F1000F0FD12E
:103B700023F4D0732360A36823F00103A360202300
:103B80006B67AB670023032085F87030BDE8F883CE
:103B90005A07D4D5E3691B05D1D54FF400632362DE
:103BA000236823F4D0732360A36823F00103A36088
:103BB00020236B67AB67EB67E4E72DE9F743984693
:103BC000436F04460E46202B17464CD1002948D09F
:103BD000002A46D090F87030012B44D001230025F4
:103BE00080F870302123C5674367FEF7E5FBA368C3
:103BF0008146A4F85070B3F5805FA4F8527003D1E9
:103C000023690BB935461E46002384F87030B4F89A
:103C100052204B46CDF8008092B23AB9402120465E
:103C2000FFF785FF40B92023636706E0002280216B
:103C30002046FFF77CFF18B1032003B0BDE8F083F6
:103C400022685EB935F8023BC3F308039362B4F807
:103C50005220013A92B2A4F85220D8E716F8013B5C
:103C6000F4E70120E9E70220E7E737B5002504463D
:103C7000C567FEF7A1FB226803461268120707D446
:103C800020230020636784F87000A36703B030BD71
:103C90006FF07E424FF40011204600922A46FFF753
:103CA00046FF0028ECD00320F0E710B5044640B3EF
:103CB000436F1BB980F87030FDF70EFE2268242395
:103CC00020466367136823F001031360FFF7CEFDFE
:103CD000012816D0636A13B12046FFF7D3FE23688C
:103CE00020465A6822F490425A609A6822F02A02CA
:103CF0009A601A6842F00102BDE810401A60FFF7AE
:103D0000B4BF012010BD00002DE9F043D1E9012C22
:103D1000D1E90739D1F82480DFF858E043EA0903F4
:103D2000D1E90376D1E905540968012901680FD06A
:103D300043EA080301EA0E01134343EA0C033B4341
:103D400033432B4323430B4303600020BDE8F08340
:103D500042EA0C0221F4F84143EA08033A430B43D8
:103D60004168324301EA0E0103602A4322430A43B9
:103D70004260EAE70080FFFFCB68012A826803F116
:103D8000FF3C4B69F0B503F1FF334C688F680E6957
:103D90004FEA03538D6904F1FF3407F1FF3706F151
:103DA000FF3605F1FF3509684FEA04144FEA07278B
:103DB00001F1FF314FEA06464FEA056543EA0C334D
:103DC0000AD00B4302F0704223433B4333432B435F
:103DD000134383600020F0BD22F4700222F470428D
:103DE0001343C26802F0704C44EA070283600A433E
:103DF00032432A4342EA0C02C260EBE713B5D1E931
:103E00000034024600202343CC68896843EA4423F7
:103E10000190013943EA41130193019B136102B000
:103E200010BD436943EA41034361002070470130FC
:103E30008000704730B518B9B1FA81F0400930BD43
:103E400003688B420CD100238B4201DB0120F6E793
:103E500050F8045F52F82340A54201D10133F3E743
:103E60000020ECE7884205D030B131B10A1D096865
:103E7000FFF7E0BF012070477047084670470130E8
:103E8000800070470B289ABF024B53F8200002486D
:103E9000704700BFEC2C050883C004080EB403B5BE
:103EA00003AA036852F8041B9B680192984702B06A
:103EB0005DF804EB03B070470CB407B504AA0368BF
:103EC00052F8041B9B680192984703B05DF804EB1D
:103ED00002B0704738B5044610461A4624B90B495B
:103EE000FFF7DCFF012038BD2568082D07D82046E4
:103EF000043904EB8505A84203D10020F3E7044907
:103F0000EEE750F8043F41F8043FF4E7DDC0040851
:103F10000BC1040803685B6818470368C01A03886C
:103F20008B428CBF405A0020704710B50C210446CC
:103F3000FFF7F3FF10B123182058184410BD0000FC
:103F400008B5034610460A2B1FD8DFE803F00A061F
:103F5000101216181A0E1C140C000A2300200B70E5
:103F600008BD0123FAE70B23F8E70723F6E702234E
:103F7000F4E70323F2E70923F0E70423EEE7052340
:103F8000ECE70623EAE70823E8E700220A701A466E
:103F90000249FFF783FF0120E2E700BF4CC104089C
:103FA00038B505461446FFF7B8FF00B12C5C204633
:103FB00038BD00220A2108B5FFF7F2FF08BD38B569
:103FC00005461446FFF7A9FF00B12C58204638BD1E
:103FD00038B505461446FFF7A0FF00B12C56204621
:103FE00038BD10B52DED028B0446B0EE408AFFF7C8
:103FF00094FF10B1044494ED008AB0EE480ABDEC81
:10400000028B10BD2DE9F3470A9E1D46002307468B
:104010000C46904633607E2901F2B981DFE811F049
:104020001E044A01BC037F009F013B07910B910BCB
:10403000910B3303910BA4044A01D104910B190194
:104040001D054A01F103910B910B910BA6062A065F
:10405000CD0292031507FE01910B910BDF06910B28
:10406000910B0503910B3D026107910B910B910B95
:10407000890777044A0406087D053F088002910BF2
:10408000910BB207910BB309CE05D500910B910BA3
:104090007E08910B910B910B910B910B910B910B56
:1040A000910B910B910BE6082009910B910B910B51
:1040B000910B910B8907910B910B4909910BB20858
:1040C000BC09890789078609910BFC09910B910BA3
:1040D000220A8907910B8907910B910B910B910B88
:1040E000910B62064F0A910B770A910BD807A10A30
:1040F000910B910B910B910B910B910B910B910BE0
:10410000CB0A910B910B910B910B910B020B2F0B87
:10411000910B910B910B910B910B910B5C0B2B68FD
:104120000422182128461B689847044660B9B84BFA
:104130004146B84A40460193C42301240093B64B3C
:10414000FFF7BAFE01F024B93846FFF732FF012825
:10415000804636D13846FFF7E8FE054688B3002290
:104160000421FFF735FF38B100F1FF39D9F1000024
:1041700040EB09004FEA400800220621284684F857
:104180000080FFF71CFF0022082160602846FFF72F
:1041900016FF00220A21A0602846FFF719FF01221E
:1041A000C0B20C21431E042B88BF00202073284678
:1041B000FFF705FF012220610E212846FFF7FFFED1
:1041C00060613460002401F0E3B82B680122022111
:1041D00028461B689847814660B98D4B41468D4AF9
:1041E00040460193D423012400938B4BFFF764FED8
:1041F00001F0CEB83846FFF7DCFE252804D00024B5
:10420000C6F8009001F0C4B83846FFF78EFE0746A6
:104210000028F4D000220421FFF7DAFE4246494686
:10422000C0B2FFF78DFE044668B902460621384643
:10423000FFF7CEFE424609F10101C0B2FFF780FE52
:1042400004460028DBD049462846FFF763FE01F00C
:104250009FB82B68012228461B68114698470446E0
:1042600060B96B4B41466B4A40460193E2230124FF
:104270000093694BFFF720FE01F08AB83846FFF73C
:1042800098FE0428054611D13846FFF74EFE68B166
:1042900000222946FFF79CFE012806D0A0F1020863
:1042A000D8F1000040EB080040002070346000248A
:1042B00001F06EB82B680422282128461B68984715
:1042C000044660B9524B4146524A40460193EE23A0
:1042D00001240093504BFFF7EFFD01F059B8384629
:1042E000FFF767FE052834D13846FFF71EFE054666
:1042F00078B300220421FFF76BFE70B300F1FF3C9E
:10430000DCF1000343EB0C035B0023700022062169
:104310002846FFF754FE0022082160602846FFF778
:104320004EFE00220A21A0602846FFF748FE002228
:104330000C21E0602846FFF742FE002220610E219A
:104340002846FFF745FEC0B2431E042B88BF00205D
:1043500020753460002401F01BB80123D5E72B68D9
:1043600004221C2128461B689847044660B9284B44
:104370004146284A40460193FD2301240093264BE1
:10438000FFF79AFD01F004B83846FFF712FE022845
:1043900037D13846FFF7C9FD054690B30022042106
:1043A000FFF716FE88B3471E78427841400000228E
:1043B000062120702846FFF702FE002208216060D7
:1043C0002846FFF7FCFD00220A21A0602846FFF7DF
:1043D000F6FD00220C21E0602846FFF7F9FD0122DE
:1043E000C0B20E21431E042B88BF00202074284633
:1043F000FFF7E5FD0122606110212846FFF7DFFD90
:10440000A0613460002400F0C3BF0120CFE700BFEB
:10441000C8C10408B1C1040870C104082B68042293
:10442000082128461B689847044668B9A14B4146B5
:10443000A14A4046019340F20F13012400939F4B81
:10444000FFF73AFD00F0A4BF3846FFF7B2FD06289B
:1044500080461ED13846FFF768FD0546C8B10022E8
:104460000421FFF7ACFD0022414620602846FFF7FB
:10447000AFFD0821C3B228465A1E042A4FF000029D
:1044800088BF00232371FFF78BFD003818BF012080
:1044900060713460002400F07BBF2B68012203218F
:1044A00028461B689847044668B9824B4146824AB1
:1044B000404601934FF48E73012400937F4BFFF726
:1044C000FBFC00F065BF3846FFF773FD1F2823D1C2
:1044D0003846FFF72AFD0546F0B100220621FFF716
:1044E00077FD0421C3B228465A1E042A4FF0000269
:1044F00088BF00236370FFF753FD00384FF00002C0
:104500004FF0080118BF012020702846FFF748FD32
:10451000003818BF0120A0703460002400F038BFBC
:104520002B680122042128461B689847044668B975
:10453000604B4146604A4046019340F22B130124F0
:1045400000935E4BFFF7B8FC00F022BF3846FFF740
:1045500030FD46282DD13846FFF7E7FC054640B32D
:1045600000220621FFF734FD0022C0B20421431EC1
:10457000042B88BF002060702846FFF711FD00382B
:104580004FF000024FF0080118BF012020702846AC
:10459000FFF706FD00384FF000024FF00A0118BF88
:1045A0000120A0702846FFF7FBFC003818BF01204F
:1045B000E0703460002400F0EBBE2B680122022181
:1045C00028461B689847044668B93A4B41463A4A20
:1045D000404601934FF49D7301240093374BFFF73E
:1045E0006BFC00F0D5BE3846FFF7E3FC072818D176
:1045F0003846FFF79AFC054698B100220421FFF7E0
:10460000E7FC0621C3B228465A1E042A4FF00002D6
:1046100088BF00232370FFF7C3FC003818BF0120B8
:1046200060703460002400F0B3BE2B68012228467D
:104630001B6811469847044668B91E4B41461E4AFE
:104640004046019340F24713012400931B4BFFF7B0
:1046500033FC00F09DBE3846FFF7ABFC14280ED1AA
:104660003846FFF762FC50B100220421FFF7B0FC8E
:10467000012803D0811E4842484140002070346028
:10468000002400F085BE2B680122042128461B6807
:1046900098470446A0B9074B4146074A4046019354
:1046A00040F251130093054BFFF706FC012400F084
:1046B0006FBE00BFC8C10408B1C1040870C10408BE
:1046C0003846FFF776FC0828814637D13846FFF791
:1046D0002CFC074690B300220421FFF779FC4946E1
:1046E000C3B238465A1E042A4FF0000288BF002386
:1046F0002370FFF755FC00384FF000024FF00A011D
:1047000018BF0120A0703846FFF74AFC00384FF070
:1047100000024FF0060118BF0120E0703846FFF795
:1047200057FC50B1012808D0B1494046FFF7B6FB0D
:1047300021462846FFF7EEFBB8E76070346000249E
:1047400000F026BE2B68042228461B6811469847B5
:10475000044668B9A74B4146A74A4046019340F238
:104760006F1301240093A54BFFF7A6FB00F010BECA
:104770003846FFF71EFC09280AD13846FFF7D5FB5B
:1047800030B19FED9F0A0421FFF72BFC84ED000A56
:104790003460002400F0FCBD2B6804220821284668
:1047A0001B689847044668B9924B4146924A404676
:1047B000019340F2791301240093904BFFF77CFBA7
:1047C00000F0E6BD3846FFF7F4FB0A2815D138465D
:1047D000FFF7ABFB054680B100220621FFF7F8FB8F
:1047E0000421C3B228465A1E042A4FF0000288BF93
:1047F00000232371FFF7E3FB20603460002400F006
:10480000C7BD2B68012228461B68114698470446FD
:1048100068B9784B4146784A4046019340F2851387
:1048200001240093754BFFF747FB00F0B1BD3846FC
:10483000FFF7BFFB15280DD13846FFF776FB48B1CF
:1048400000220421FFF7C4FBC3B25A1E042A88BF0A
:10485000002323703460002400F09ABD2B680122ED
:1048600028461B6811469847054668B9614B414682
:10487000614A4046019340F28F13012400935F4B3D
:10488000FFF71AFB00F084BD3846FFF792FB0B28B8
:104890000DD13846FFF749FB48B100220421FFF74C
:1048A00097FBC3B25A1E042A88BF23462B7035607B
:1048B00000F06EBD2B68012228461B681146984700
:1048C000044668B94B4B41464B4A4046019340F27F
:1048D000991301240093494BFFF7EEFA00F058BDFD
:1048E0003846FFF766FB1D280DD13846FFF71DFB44
:1048F00048B100220421FFF76BFBC3B25A1E042A01
:1049000088BF002323703460002400F041BD2B6871
:10491000012228461B6811469847044668B9354B62
:104920004146354A4046019340F2A31301240093C7
:10493000324BFFF7C1FA00F02BBD3846FFF739FBC9
:104940001C280DD13846FFF7F0FA48B100220421A7
:10495000FFF73EFBC3B25A1E042A88BF0023237010
:104960003460002400F014BD2B68012228461B6827
:1049700011469847044668B91E4B41461E4A4046B8
:10498000019340F2AD13012400931C4BFFF794FAFE
:1049900000F0FEBC3846FFF70CFB0C280DD1384662
:1049A000FFF7C3FA48B100220421FFF711FBC3B29D
:1049B0005A1E042A88BF002323703460002400F0AC
:1049C000E7BC2B680422102128461B689847044640
:1049D000C0B9084B4146084A4046019340F2B7131C
:1049E00001240093054BFFF767FA00F0D1BC00BF2C
:1049F000DAC10408C8C10408B1C1040870C10408C0
:104A0000000000003846FFF7D4FA0D2821D13846BF
:104A1000FFF78BFA0546E0B100220421FFF7CFFA39
:104A20000621206028461FED0A0AFFF7DAFA08215E
:104A3000284684ED010A1FED0E0AFFF7D2FA0A217B
:104A400084ED020A28461FED120AFFF7CAFA84ED28
:104A5000030A3460002400F09BBC2B680422102160
:104A600028461B689847044668B9BA4B4146BA4A7B
:104A7000404601934FF4E2730093B84BFFF71CFAE2
:104A8000012400F085BC3846FFF793FA0E283FD189
:104A90003846FFF74AFA0746002839D00022042199
:104AA000FFF796FA0621C0B29FEDAD0A431E042B14
:104AB00088BF002020703846FFF793FA0821384657
:104AC00084ED010A9FEDA60AFFF78BFA00220A2166
:104AD000384684ED020AFFF77BFA58B1012809D065
:104AE000C2B2A0494046FFF7D9F921462846FFF750
:104AF00011FAC5E7207300220C213846FFF750FA5F
:104B0000003818BF012060733460002400F040BCFE
:104B100095494046FFF7C2F9E7E72B6804221021C8
:104B200028461B689847044668B98A4B41468A4A1A
:104B3000404601934FF4F27301240093874BFFF733
:104B4000BBF900F025BC3846FFF733FA472832D1CD
:104B50003846FFF7EAF9054668B300220421FFF75B
:104B600037FA0621C0B29FED7E0A431E042B88BF90
:104B7000002020702846FFF734FA0821284684EDEB
:104B8000010A9FED770AFFF72CFA00220A2184ED33
:104B9000020A2846FFF704FA00384FF000024FF0EF
:104BA0000C0118BF012020732846FFF7F9F90038DF
:104BB00018BF0120607334600024E9E32B680422ED
:104BC000102128461B689847044660B9614B41464E
:104BD000614A4046019340F2F513012400935F4B74
:104BE000FFF76AF9D4E33846FFF7E3F945283ED1E9
:104BF0003846FFF79AF90546002838D000220421EC
:104C0000FFF7E6F90621C0B29FED550A431E042BBB
:104C100088BF002020702846FFF7E3F908212846C6
:104C200084ED010A9FED4E0AFFF7DBF9002284EDC7
:104C3000020A0A212846FFF7B3F900384FF00102B3
:104C40004FF00C0118BF012020732846FFF7A8F988
:104C500000384FF000024FF00E0118BF01206073C2
:104C60002846FFF79DF9003818BF0120A073346073
:104C700000248DE32B680122022128461B689847F7
:104C8000044660B9334B4146334A4046019340F2F3
:104C9000062301240093314BFFF70EF978E33846E1
:104CA000FFF787F90F281AD13846FFF73EF9054676
:104CB000A8B100220821FFF773F900384FF0000275
:104CC0004FF00A0118BF012020702846FFF768F94D
:104CD000003818BF012060703460002458E30020C1
:104CE0002070F8E72B680122022128461B689847AC
:104CF000044660B9174B4146174A4046019340F2BB
:104D0000172301240093154BFFF7D6F840E33846EC
:104D1000FFF74FF94A281AD13846FFF706F905463A
:104D2000A8B100220421FFF73BF900384FF0000240
:104D30004FF0060118BF012020702846FFF730F918
:104D4000003818BF012060703460002420E3002088
:104D50002070F8E7C8C10408B1C1040870C1040894
:104D60000000000004C2040823C204082B680422C7
:104D7000242128461B689847814660B9A74B4146C5
:104D8000A74A4046019340F2252301240093A54BF6
:104D9000FFF792F8FCE23846FFF70BF911281AD119
:104DA0003846FFF7C2F80446A8B10421FFF7B5F86A
:104DB00088B154F800A027189B4B4246494607EBA0
:104DC0000A00FFF787F80446002840F0BC8457F833
:104DD0000A30C9F820300024C6F80090D8E22B68C9
:104DE00004220C2128461B689847044660B98B4B67
:104DF00041468B4A4046019340F2372301240093F9
:104E0000884BFFF759F8C3E23846FFF7D2F812286B
:104E100018D13846FFF789F8054698B100220421D9
:104E2000FFF7CDF80022062120602846FFF7C7F8DB
:104E30000022606008212846FFF7B2F8003818BF4A
:104E40000120207234600024A2E22B68042228464C
:104E50001B6811469847044660B9704B4146704A3A
:104E60004046019340F24323012400936D4BFFF72A
:104E700023F88DE23846FFF79CF8132808D138460E
:104E8000FFF753F820B100220421FFF798F82060C3
:104E9000346000247CE22B68042228461B681146FB
:104EA0009847044660B95D4B41465D4A40460193D0
:104EB00040F24D23012400935A4BFEF7FDFF67E2B9
:104EC0003846FFF776F85E2808D13846FFF72DF808
:104ED00020B100220421FFF772F820603460002422
:104EE00056E22B68042228461B6811469847044660
:104EF00060B94A4B41464A4A4046019340F2572323
:104F000001240093474BFEF7D7FF41E200250560DF
:104F10003846FFF74EF8172808D13846FFF705F84E
:104F200020B12A460421FFF74AF8206034600024AB
:104F30002EE22B68012228461B681146984704463A
:104F400060B9364B4146364A4046019340F26723EA
:104F500001240093334BFEF7AFFF19E23846FFF709
:104F600028F81B280BD13846FEF7DFFF38B10022A6
:104F70000421FFF715F8003818BF012020703460B5
:104F8000002405E22B68042228461B681146984736
:104F9000044660B9214B4146214A404601934FF4F3
:104FA0001C73012400931F4BFEF786FFF0E1384687
:104FB000FEF7FFFF232808D13846FEF7B6FF20B1E1
:104FC00000220421FEF7FBFF206034600024DFE1B3
:104FD0002B68042228461B6811469847044660B98E
:104FE0000E4B41460E4A4046019340F2792301247C
:104FF00000930C4BFEF760FFCAE13846FEF7D9FF7D
:105000004F2808D13846FEF790FF20B10022042136
:10501000FEF7D5FF206034600024B9E1C8C1040860
:10502000B1C1040870C1040847C204082B680422F7
:10503000242128461B689847814660B9AC4B4146FD
:10504000AC4A4046019340F2822301240093AA4BCC
:10505000FEF732FF9CE13846FEF7ABFF1E2818D161
:105060003846FEF762FF044698B10421FEF755FF6B
:1050700098B1231827581F44A04B4246494638464A
:10508000FEF728FF0446002840F062833B68C9F819
:1050900020300024C6F800907AE10746ECE72B6840
:1050A0000422142128461B689847044660B9904B97
:1050B0004146904A4046019340F28F2301240093D9
:1050C0008D4BFEF7F9FE63E13846FEF772FF2028AC
:1050D00021D13846FEF729FF0546E0B10022042120
:1050E000FEF76DFF0022062120602846FEF767FFCD
:1050F0000022082160602846FEF761FF00220A2195
:10510000A0602846FEF75BFF0022E0600C212846E5
:10511000FEF755FF20613460002439E12B6801223D
:1051200028461B6811469847814660B9704B414636
:10513000704A4046019340F29D23012400936E4B38
:10514000FEF7BAFE24E13846FEF733FF282803D0E5
:105150000024C6F800901BE13846FEF7E6FE002862
:10516000F6D000220421FEF733FF42464946C0B282
:10517000FEF7E6FE04460028EAD049462846FEF738
:10518000C9FE05E12B68012228461B681146984795
:10519000814660B9564B4146564A404601934FF40A
:1051A0002A7301240093544BFEF786FEF0E0384644
:1051B000FEF7FFFE392803D00024C6F80090E7E090
:1051C0003846FEF7B2FE0028F6D000220421FEF792
:1051D000FFFE42464946C0B2FEF7B2FE0446002832
:1051E000EAD049462846FEF795FED1E02B68042216
:1051F0000C2128461B689847044660B93C4B414641
:105200003C4A4046019340F2B323012400933A4BB9
:10521000FEF752FEBCE03846FEF7CBFE31281AD12D
:105220003846FEF782FE0546A8B100220421FEF7AB
:10523000CFFE98B1421E534253415B00002206212B
:1052400023702846FEF7BBFE002260600821284636
:10525000FEF7B5FEA0603460002499E00123EDE77D
:105260002B68012228461B6811469847044660B9FE
:105270001F4B41461F4A4046019340F2BF23012481
:1052800000931D4BFEF718FE82E03846FEF791FEB4
:1052900032280BD13846FEF748FE38B100220421EF
:1052A000FEF77EFE003818BF012020703460002415
:1052B0006EE02B68012228461B68114698478146FC
:1052C00060B90B4B41460B4A4046019340F2C9235B
:1052D00001240093084BFEF7EFFD59E03846FEF736
:1052E00068FE37280CD00024C6F8009050E000BFBC
:1052F000C8C10408B1C1040870C104084FC2040841
:105300003846FEF712FE0028EDD000220421FEF7F9
:105310005FFE42464946C0B2FEF712FE0446002830
:10532000E1D049462846FEF7F5FD31E02B6804221E
:10533000082128461B689847044660B9A84B414697
:10534000A84A4046019340F2D32301240093A64B80
:10535000FEF7B2FD1CE03846FEF72BFE3B280FD1CE
:105360003846FEF7E2FD054650B100220421FEF763
:1053700026FE0022206006212846FEF720FE6060FF
:105380003460002404E099491046FEF787FD0124AB
:10539000204602B0BDE8F0872B6804221021284681
:1053A0001B689847044660B98D4B41468D4A40467C
:1053B000019340F2E323012400938B4BFEF77CFD25
:1053C000E6E73846FEF7F5FD3A2822D13846FEF7E3
:1053D000ACFD0546E8B104219FED850AFEF701FE0C
:1053E0000621284684ED000A9FED810AFEF7F9FDAB
:1053F0000022082184ED010A2846FEF7E0FD002284
:10540000A0600A212846FEF7CBFD003818BF012016
:10541000207334600024BBE72B68042228461B68F5
:1054200011469847044660B96D4B41466D4A404667
:1054300001934FF43C73012400936B4BFEF73CFD4A
:10544000A6E73846FEF7B5FD3D2808D13846FEF7F9
:105450006CFD20B100220421FEF7B1FD2060346014
:10546000002495E72B680422082128461B689847EA
:10547000044660B95A4B41465A4A4046019340F2AD
:10548000F92301240093584BFEF716FD80E73846B8
:10549000FEF78FFD40280FD13846FEF746FD054642
:1054A00050B100220421FEF78AFD0022206006216F
:1054B0002846FEF784FD60603460002468E72B68AE
:1054C000042228461B6811469847044660B9444B9D
:1054D0004146444A4046019340F20333012400937D
:1054E000414BFEF7E9FC53E73846FEF762FD4B28D7
:1054F0000AD13846FEF719FD30B19FED3D0A04216F
:10550000FEF76FFD84ED000A3460002440E72B684D
:10551000012228461B6811469847044660B9304B63
:105520004146304A4046019340F20D330124009336
:105530002D4BFEF7C1FC2BE73846FEF73AFD4D2810
:105540000CD13846FEF7F1FC40B100220421FEF7F1
:105550003FFD002814BF0223012323703460002480
:1055600016E72B68012228461B6811469847044617
:1055700060B91B4B41461B4A4046019340F21A3327
:1055800001240093184BFEF797FC01E73846FEF71D
:1055900010FD50280CD13846FEF7C7FC40B102225E
:1055A0000421FEF715FD042814BF022304232370F1
:1055B00034600024ECE62B680422082128461B688E
:1055C00098470446B0B9064B4146064A4046019307
:1055D00040F2273301240093034BFEF76DFCD7E61E
:1055E000C8C10408B1C1040870C1040857C2040846
:1055F000000000003846FEF7DCFC57280FD1384683
:10560000FEF793FC054650B100220421FEF7D7FCBB
:105610000022206006212846FEF7D1FC606034603D
:105620000024B5E62B680422082128461B68984709
:10563000044660B9494B4146494A4046019340F20D
:10564000323301240093474BFEF736FCA0E6384680
:10565000FEF7AFFC5C280FD13846FEF766FC054626
:1056600050B100220421FEF7AAFC0022206006218E
:105670002846FEF7A4FC60603460002488E62B68AE
:105680000422082128461B689847044660B9334B1A
:105690004146334A404601934FF44F73012400932F
:1056A000304BFEF709FC73E63846FEF782FC5D28B6
:1056B0000FD13846FEF739FC054650B100220421CF
:1056C000FEF77DFC0022206006212846FEF777FCCD
:1056D0006060346000245BE62B68012202212846CA
:1056E0001B689847044660B91C4B41461C4A40461B
:1056F000019340F24633012400931A4BFEF7DCFB82
:1057000046E63846FEF755FC652817D13846FEF7C1
:105710000CFC054690B100220421FEF741FC003844
:105720004FF000024FF0060118BF012020702846FC
:10573000FEF736FC003818BF01206070346000248A
:1057400026E6002424E649462846FEF7E3FB1FE64A
:1057500049462846FEF7DEFB1AE600BFC8C104082A
:10576000B1C1040870C104082DE9F0471E460023AA
:105770000F460421336005469046FEF7CEFB0446F3
:1057800000B12C56082128465FFA84FAFEF7C5FBC3
:1057900060B155F80090BAF17E0F0AD952461C4903
:1057A0004046FEF77BFB0120BDE8F0874FF0010982
:1057B000F1E7BAF1200F10D03B684A46514638460F
:1057C0001B689847306000BB124A4B46124940465E
:1057D00052F82420FEF762FBE5E706212846FEF793
:1057E0009CFB291860B12B5838463A68043354683A
:1057F0004A461944A0473060B0FA80F04009D3E728
:1058000006494046FEF74AFBCDE70020CCE700BF43
:105810007DC204081C2D0508D1C2040806C3040873
:1058200090F82D3030B553B103784168092B0A4602
:105830000CBF04690024531A85699D4201D80020D9
:1058400030BD02F8014BF6E7F8B5002206460C46DB
:1058500000232DED028B51EC100BB0EE408AF0EEE0
:10586000608AFBF759F9054628B1002333602360AD
:10587000BDEC028BF8BD2046B0EE480AF0EE680A97
:1058800008F0EAFE0022134B51EC100BFAF7DCFE95
:1058900041EC100B09F088F951EC100BFBF7FEF905
:1058A0004FF000420346824275EB010701DA09F02E
:1058B00096FAA94208BF904201BF236801332360D2
:1058C0004FF0804322681F32BCBF00232360336047
:1058D000CEE700BF0000E04138B5002205460C4687
:1058E0000D4B2DED028B51EC100BB0EE408AF0EE1B
:1058F000608AFBF739F908B909F071FAB0EE480A85
:10590000F0EE680A21462846FFF79EFF2368002B29
:10591000F2DBBDEC028B38BD0000F03FF7B555EC73
:10592000104B07460E4600220D4B20462946FBF73A
:10593000FDF808B909F053FA002200232046294651
:10594000FBF712F90028F5D001A9384645EC104BB9
:10595000FFF77AFF019B002BECDC336003B0F0BD56
:105960000000F03F000000002DE9F84F4FF0004329
:1059700093468A4623FA00F02DED028B57EC106B0C
:1059800059EC118BFAF7F6FD04460D4642464B469C
:1059900030463946FAF758FE02460B46204629465D
:1059A000FAF752FE02460B4643EC182B0AA3D3E942
:1059B0000023FBF7D9F808B19FED078BB0EE480A3A
:1059C000F0EE680A59465046BDEC028BBDE8F84F30
:1059D000FFF782BFAFF300800000C0FFFFFFDF4191
:1059E0002DE9F843012481461546884604FA00F063
:1059F0000138FAF7BFFD0646A5EB09000F46C0F1D6
:105A00002003A0F1200104FA00F024FA03F304FAC1
:105A100001F11943FAF7EAFD02460B4630463946D2
:105A2000FAF712FEC8F120030F46A8F1200124FA6C
:105A300003F3064604FA01F104FA08F01943FAF7F1
:105A4000D5FD02460B4630463946FAF727FF41ECB2
:105A5000100B09F02DF851EC100BFBF78FF8BDE897
:105A6000F88390ED007A4068C0EE077AF8FE677A16
:105A7000FDEEE77A17EE903A0344184670470000AF
:105A8000D1ED037A92ED037A67EE877A73B5F5EE7E
:105A9000C07A1E46F1EE10FA09DA0F4B0F4A009356
:105AA000A22344690E49A047012002B070BD17EE41
:105AB000900AFAF771FD04460D46F068FAF76CFD9E
:105AC0000B46024629462046FAF7E8FE069BC3E944
:105AD00000010020E9E700BF4EC8040819C8040807
